{
  "abi": [
    {
      "inputs": [
        {
          "internalType": "bytes32[]",
          "name": "candidateNames",
          "type": "bytes32[]"
        }
      ],
      "stateMutability": "nonpayable",
      "type": "constructor"
    },
    {
      "inputs": [],
      "name": "AlreadyVoted",
      "type": "error"
    },
    {
      "inputs": [],
      "name": "InvalidCandidate",
      "type": "error"
    },
    {
      "inputs": [],
      "name": "InvalidCommitment",
      "type": "error"
    },
    {
      "inputs": [],
      "name": "NotChairperson",
      "type": "error"
    },
    {
      "inputs": [],
      "name": "NotInRevealPhase",
      "type": "error"
    },
    {
      "inputs": [],
      "name": "VotingClosed",
      "type": "error"
    },
    {
      "inputs": [
        {
          "internalType": "uint256",
          "name": "",
          "type": "uint256"
        }
      ],
      "name": "candidates",
      "outputs": [
        {
          "internalType": "bytes32",
          "name": "name",
          "type": "bytes32"
        },
        {
          "internalType": "uint32",
          "name": "voteCount",
          "type": "uint32"
        }
      ],
      "stateMutability": "view",
      "type": "function"
    },
    {
      "inputs": [],
      "name": "chairperson",
      "outputs": [
        {
          "internalType": "address",
          "name": "",
          "type": "address"
        }
      ],
      "stateMutability": "view",
      "type": "function"
    },
    {
      "inputs": [
        {
          "internalType": "enum Voting.ElectionState",
          "name": "_newState",
          "type": "uint8"
        }
      ],
      "name": "changeState",
      "outputs": [],
      "stateMutability": "nonpayable",
      "type": "function"
    },
    {
      "inputs": [
        {
          "internalType": "bytes32",
          "name": "_commitment",
          "type": "bytes32"
        }
      ],
      "name": "commitVote",
      "outputs": [],
      "stateMutability": "nonpayable",
      "type": "function"
    },
    {
      "inputs": [
        {
          "internalType": "uint256",
          "name": "_candidateIndex",
          "type": "uint256"
        },
        {
          "internalType": "bytes32",
          "name": "_secret",
          "type": "bytes32"
        }
      ],
      "name": "revealVote",
      "outputs": [],
      "stateMutability": "nonpayable",
      "type": "function"
    },
    {
      "inputs": [],
      "name": "state",
      "outputs": [
        {
          "internalType": "enum Voting.ElectionState",
          "name": "",
          "type": "uint8"
        }
      ],
      "stateMutability": "view",
      "type": "function"
    },
    {
      "inputs": [
        {
          "internalType": "address",
          "name": "",
          "type": "address"
        }
      ],
      "name": "voters",
      "outputs": [
        {
          "internalType": "bytes32",
          "name": "commitment",
          "type": "bytes32"
        },
        {
          "internalType": "bool",
          "name": "hasRevealed",
          "type": "bool"
        }
      ],
      "stateMutability": "view",
      "type": "function"
    },
    {
      "inputs": [],
      "name": "winnerName",
      "outputs": [
        {
          "internalType": "bytes32",
          "name": "",
          "type": "bytes32"
        }
      ],
      "stateMutability": "view",
      "type": "function"
    }
  ],
  "bytecode": "60a060405234801561001057600080fd5b5060405161082838038061082883398101604081905261002f916100d9565b336080526000805460ff191681555b81518110156100bc5760036040518060400160405280848481518110610066576100666101a5565b602090810291909101810151825260009181018290528354600180820186559483529181902083516002909302019182559190910151908201805463ffffffff191663ffffffff9092169190911790550161003e565b50506101bb565b634e487b7160e01b600052604160045260246000fd5b6000602082840312156100eb57600080fd5b81516001600160401b0381111561010157600080fd5b8201601f8101841361011257600080fd5b80516001600160401b0381111561012b5761012b6100c3565b604051600582901b90603f8201601f191681016001600160401b0381118282101715610159576101596100c3565b60405291825260208184018101929081018784111561017757600080fd5b6020850194505b8385101561019a5784518082526020958601959093500161017e565b509695505050505050565b634e487b7160e01b600052603260045260246000fd5b60805161064c6101dc6000396000818160a701526101b4015261064c6000f3fe608060405234801561001057600080fd5b50600436106100885760003560e01c806369edbcda1161005b57806369edbcda14610126578063a3ec138d14610139578063c19d93fb14610178578063e2ba53f01461019257600080fd5b8063268f11531461008d5780632e4176cf146100a25780633477ee2e146100e65780633e85892314610113575b600080fd5b6100a061009b366004610506565b6101a9565b005b6100c97f000000000000000000000000000000000000000000000000000000000000000081565b6040516001600160a01b0390911681526020015b60405180910390f35b6100f96100f436600461052e565b61023a565b6040805192835263ffffffff9091166020830152016100dd565b6100a061012136600461052e565b61026e565b6100a0610134366004610547565b6102e4565b610163610147366004610569565b6002602052600090815260409020805460019091015460ff1682565b604080519283529015156020830152016100dd565b6000546101859060ff1681565b6040516100dd91906105a8565b61019b60015481565b6040519081526020016100dd565b336001600160a01b037f000000000000000000000000000000000000000000000000000000000000000016146101f257604051636c4a979d60e01b815260040160405180910390fd5b6000805482919060ff1916600183600281111561021157610211610592565b0217905550600281600281111561022a5761022a610592565b036102375761023761044c565b50565b6003818154811061024a57600080fd5b60009182526020909120600290910201805460019091015490915063ffffffff1682565b6000805460ff16600281111561028657610286610592565b146102a45760405163335b65a560e11b815260040160405180910390fd5b33600090815260026020526040902054156102d257604051637c9a1cf960e01b815260040160405180910390fd5b33600090815260026020526040902055565b600160005460ff1660028111156102fd576102fd610592565b1461031b576040516374683d7160e01b815260040160405180910390fd5b336000908152600260205260409020600181015460ff161561035057604051637c9a1cf960e01b815260040160405180910390fd5b805460000361037257604051636033c4fd60e11b815260040160405180910390fd5b60035483106103945760405163e66ea08f60e01b815260040160405180910390fd5b60408051602080820186905281830185905282518083038401815260609092019092528051910120815481146103dd57604051636033c4fd60e11b815260040160405180910390fd5b6001828101805460ff1916821790556003805486908110610400576104006105d0565b600091825260208220600160029092020101805490919061042890849063ffffffff166105e6565b92506101000a81548163ffffffff021916908363ffffffff16021790555050505050565b60008060005b6003548110156104d1578263ffffffff1660038281548110610476576104766105d0565b600091825260209091206001600290920201015463ffffffff1611156104c957600381815481106104a9576104a96105d0565b600091825260209091206001600290920201015463ffffffff1692509050805b600101610452565b506003541561050257600381815481106104ed576104ed6105d0565b60009182526020909120600290910201546001555b5050565b60006020828403121561051857600080fd5b81356003811061052757600080fd5b9392505050565b60006020828403121561054057600080fd5b5035919050565b6000806040838503121561055a57600080fd5b50508035926020909101359150565b60006020828403121561057b57600080fd5b81356001600160a01b038116811461052757600080fd5b634e487b7160e01b600052602160045260246000fd5b60208101600383106105ca57634e487b7160e01b600052602160045260246000fd5b91905290565b634e487b7160e01b600052603260045260246000fd5b63ffffffff818116838216019081111561061057634e487b7160e01b600052601160045260246000fd5b9291505056fea26469706673582212201487bcc84e5a4c6619ceb9822ef5c6a757ac469af9cd23c962825582c1c9c45b64736f6c634300081f0033",
  "bytecodeSha1": "978c1243d74df622132acb9661e9d6d4bb8e7c30",
  "compiler": {
    "evm_version": "istanbul",
    "optimizer": {
      "enabled": true,
      "runs": 200
    },
    "version": "0.8.31+commit.fd3a2265"
  },
  "contractName": "Voting",
  "language": "Solidity",
  "natspec": {
    "details": "Implements a Commit-Reveal cryptographic voting scheme for voter anonymity. Highly optimized for gas efficiency utilizing custom errors and tightly packed structs.",
    "kind": "dev",
    "methods": {
      "changeState(uint8)": {
        "details": "Admin function to transition between COMMIT, REVEAL, and CLOSED phases"
      },
      "commitVote(bytes32)": {
        "details": "Step 1: Submit a hashed commitment `keccak256(abi.encodePacked(candidateIndex, secret))`"
      },
      "revealVote(uint256,bytes32)": {
        "details": "Step 2: Reveal the candidate index and secret to tally the vote"
      }
    },
    "title": "Voting",
    "version": 1
  },
  "opcodes": "PUSH1 0x80 PUSH1 0x40 MSTORE CALLVALUE DUP1 ISZERO PUSH2 0x10 JUMPI PUSH1 0x0 DUP1 REVERT JUMPDEST POP PUSH1 0x4 CALLDATASIZE LT PUSH2 0x88 JUMPI PUSH1 0x0 CALLDATALOAD PUSH1 0xE0 SHR DUP1 PUSH4 0x69EDBCDA GT PUSH2 0x5B JUMPI DUP1 PUSH4 0x69EDBCDA EQ PUSH2 0x126 JUMPI DUP1 PUSH4 0xA3EC138D EQ PUSH2 0x139 JUMPI DUP1 PUSH4 0xC19D93FB EQ PUSH2 0x178 JUMPI DUP1 PUSH4 0xE2BA53F0 EQ PUSH2 0x192 JUMPI PUSH1 0x0 DUP1 REVERT JUMPDEST DUP1 PUSH4 0x268F1153 EQ PUSH2 0x8D JUMPI DUP1 PUSH4 0x2E4176CF EQ PUSH2 0xA2 JUMPI DUP1 PUSH4 0x3477EE2E EQ PUSH2 0xE6 JUMPI DUP1 PUSH4 0x3E858923 EQ PUSH2 0x113 JUMPI JUMPDEST PUSH1 0x0 DUP1 REVERT JUMPDEST PUSH2 0xA0 PUSH2 0x9B CALLDATASIZE PUSH1 0x4 PUSH2 0x506 JUMP JUMPDEST PUSH2 0x1A9 JUMP JUMPDEST STOP JUMPDEST PUSH2 0xC9 PUSH32 0x0 DUP2 JUMP JUMPDEST PUSH1 0x40 MLOAD PUSH1 0x1 PUSH1 0x1 PUSH1 0xA0 SHL SUB SWAP1 SWAP2 AND DUP2 MSTORE PUSH1 0x20 ADD JUMPDEST PUSH1 0x40 MLOAD DUP1 SWAP2 SUB SWAP1 RETURN JUMPDEST PUSH2 0xF9 PUSH2 0xF4 CALLDATASIZE PUSH1 0x4 PUSH2 0x52E JUMP JUMPDEST PUSH2 0x23A JUMP JUMPDEST PUSH1 0x40 DUP1 MLOAD SWAP3 DUP4 MSTORE PUSH4 0xFFFFFFFF SWAP1 SWAP2 AND PUSH1 0x20 DUP4 ADD MSTORE ADD PUSH2 0xDD JUMP JUMPDEST PUSH2 0xA0 PUSH2 0x121 CALLDATASIZE PUSH1 0x4 PUSH2 0x52E JUMP JUMPDEST PUSH2 0x26E JUMP JUMPDEST PUSH2 0xA0 PUSH2 0x134 CALLDATASIZE PUSH1 0x4 PUSH2 0x547 JUMP JUMPDEST PUSH2 0x2E4 JUMP JUMPDEST PUSH2 0x163 PUSH2 0x147 CALLDATASIZE PUSH1 0x4 PUSH2 0x569 JUMP JUMPDEST PUSH1 0x2 PUSH1 0x20 MSTORE PUSH1 0x0 SWAP1 DUP2 MSTORE PUSH1 0x40 SWAP1 KECCAK256 DUP1 SLOAD PUSH1 0x1 SWAP1 SWAP2 ADD SLOAD PUSH1 0xFF AND DUP3 JUMP JUMPDEST PUSH1 0x40 DUP1 MLOAD SWAP3 DUP4 MSTORE SWAP1 ISZERO ISZERO PUSH1 0x20 DUP4 ADD MSTORE ADD PUSH2 0xDD JUMP JUMPDEST PUSH1 0x0 SLOAD PUSH2 0x185 SWAP1 PUSH1 0xFF AND DUP2 JUMP JUMPDEST PUSH1 0x40 MLOAD PUSH2 0xDD SWAP2 SWAP1 PUSH2 0x5A8 JUMP JUMPDEST PUSH2 0x19B PUSH1 0x1 SLOAD DUP2 JUMP JUMPDEST PUSH1 0x40 MLOAD SWAP1 DUP2 MSTORE PUSH1 0x20 ADD PUSH2 0xDD JUMP JUMPDEST CALLER PUSH1 0x1 PUSH1 0x1 PUSH1 0xA0 SHL SUB PUSH32 0x0 AND EQ PUSH2 0x1F2 JUMPI PUSH1 0x40 MLOAD PUSH4 0x6C4A979D PUSH1 0xE0 SHL DUP2 MSTORE PUSH1 0x4 ADD PUSH1 0x40 MLOAD DUP1 SWAP2 SUB SWAP1 REVERT JUMPDEST PUSH1 0x0 DUP1 SLOAD DUP3 SWAP2 SWAP1 PUSH1 0xFF NOT AND PUSH1 0x1 DUP4 PUSH1 0x2 DUP2 GT ISZERO PUSH2 0x211 JUMPI PUSH2 0x211 PUSH2 0x592 JUMP JUMPDEST MUL OR SWAP1 SSTORE POP PUSH1 0x2 DUP2 PUSH1 0x2 DUP2 GT ISZERO PUSH2 0x22A JUMPI PUSH2 0x22A PUSH2 0x592 JUMP JUMPDEST SUB PUSH2 0x237 JUMPI PUSH2 0x237 PUSH2 0x44C JUMP JUMPDEST POP JUMP JUMPDEST PUSH1 0x3 DUP2 DUP2 SLOAD DUP2 LT PUSH2 0x24A JUMPI PUSH1 0x0 DUP1 REVERT JUMPDEST PUSH1 0x0 SWAP2 DUP3 MSTORE PUSH1 0x20 SWAP1 SWAP2 KECCAK256 PUSH1 0x2 SWAP1 SWAP2 MUL ADD DUP1 SLOAD PUSH1 0x1 SWAP1 SWAP2 ADD SLOAD SWAP1 SWAP2 POP PUSH4 0xFFFFFFFF AND DUP3 JUMP JUMPDEST PUSH1 0x0 DUP1 SLOAD PUSH1 0xFF AND PUSH1 0x2 DUP2 GT ISZERO PUSH2 0x286 JUMPI PUSH2 0x286 PUSH2 0x592 JUMP JUMPDEST EQ PUSH2 0x2A4 JUMPI PUSH1 0x40 MLOAD PUSH4 0x335B65A5 PUSH1 0xE1 SHL DUP2 MSTORE PUSH1 0x4 ADD PUSH1 0x40 MLOAD DUP1 SWAP2 SUB SWAP1 REVERT JUMPDEST CALLER PUSH1 0x0 SWAP1 DUP2 MSTORE PUSH1 0x2 PUSH1 0x20 MSTORE PUSH1 0x40 SWAP1 KECCAK256 SLOAD ISZERO PUSH2 0x2D2 JUMPI PUSH1 0x40 MLOAD PUSH4 0x7C9A1CF9 PUSH1 0xE0 SHL DUP2 MSTORE PUSH1 0x4 ADD PUSH1 0x40 MLOAD DUP1 SWAP2 SUB SWAP1 REVERT JUMPDEST CALLER PUSH1 0x0 SWAP1 DUP2 MSTORE PUSH1 0x2 PUSH1 0x20 MSTORE PUSH1 0x40 SWAP1 KECCAK256 SSTORE JUMP JUMPDEST PUSH1 0x1 PUSH1 0x0 SLOAD PUSH1 0xFF AND PUSH1 0x2 DUP2 GT ISZERO PUSH2 0x2FD JUMPI PUSH2 0x2FD PUSH2 0x592 JUMP JUMPDEST EQ PUSH2 0x31B JUMPI PUSH1 0x40 MLOAD PUSH4 0x74683D71 PUSH1 0xE0 SHL DUP2 MSTORE PUSH1 0x4 ADD PUSH1 0x40 MLOAD DUP1 SWAP2 SUB SWAP1 REVERT JUMPDEST CALLER PUSH1 0x0 SWAP1 DUP2 MSTORE PUSH1 0x2 PUSH1 0x20 MSTORE PUSH1 0x40 SWAP1 KECCAK256 PUSH1 0x1 DUP2 ADD SLOAD PUSH1 0xFF AND ISZERO PUSH2 0x350 JUMPI PUSH1 0x40 MLOAD PUSH4 0x7C9A1CF9 PUSH1 0xE0 SHL DUP2 MSTORE PUSH1 0x4 ADD PUSH1 0x40 MLOAD DUP1 SWAP2 SUB SWAP1 REVERT JUMPDEST DUP1 SLOAD PUSH1 0x0 SUB PUSH2 0x372 JUMPI PUSH1 0x40 MLOAD PUSH4 0x6033C4FD PUSH1 0xE1 SHL DUP2 MSTORE PUSH1 0x4 ADD PUSH1 0x40 MLOAD DUP1 SWAP2 SUB SWAP1 REVERT JUMPDEST PUSH1 0x3 SLOAD DUP4 LT PUSH2 0x394 JUMPI PUSH1 0x40 MLOAD PUSH4 0xE66EA08F PUSH1 0xE0 SHL DUP2 MSTORE PUSH1 0x4 ADD PUSH1 0x40 MLOAD DUP1 SWAP2 SUB SWAP1 REVERT JUMPDEST PUSH1 0x40 DUP1 MLOAD PUSH1 0x20 DUP1 DUP3 ADD DUP7 SWAP1 MSTORE DUP2 DUP4 ADD DUP6 SWAP1 MSTORE DUP3 MLOAD DUP1 DUP4 SUB DUP5 ADD DUP2 MSTORE PUSH1 0x60 SWAP1 SWAP3 ADD SWAP1 SWAP3 MSTORE DUP1 MLOAD SWAP2 ADD KECCAK256 DUP2 SLOAD DUP2 EQ PUSH2 0x3DD JUMPI PUSH1 0x40 MLOAD PUSH4 0x6033C4FD PUSH1 0xE1 SHL DUP2 MSTORE PUSH1 0x4 ADD PUSH1 0x40 MLOAD DUP1 SWAP2 SUB SWAP1 REVERT JUMPDEST PUSH1 0x1 DUP3 DUP2 ADD DUP1 SLOAD PUSH1 0xFF NOT AND DUP3 OR SWAP1 SSTORE PUSH1 0x3 DUP1 SLOAD DUP7 SWAP1 DUP2 LT PUSH2 0x400 JUMPI PUSH2 0x400 PUSH2 0x5D0 JUMP JUMPDEST PUSH1 0x0 SWAP2 DUP3 MSTORE PUSH1 0x20 DUP3 KECCAK256 PUSH1 0x1 PUSH1 0x2 SWAP1 SWAP3 MUL ADD ADD DUP1 SLOAD SWAP1 SWAP2 SWAP1 PUSH2 0x428 SWAP1 DUP5 SWAP1 PUSH4 0xFFFFFFFF AND PUSH2 0x5E6 JUMP JUMPDEST SWAP3 POP PUSH2 0x100 EXP DUP2 SLOAD DUP2 PUSH4 0xFFFFFFFF MUL NOT AND SWAP1 DUP4 PUSH4 0xFFFFFFFF AND MUL OR SWAP1 SSTORE POP POP POP POP POP JUMP JUMPDEST PUSH1 0x0 DUP1 PUSH1 0x0 JUMPDEST PUSH1 0x3 SLOAD DUP2 LT ISZERO PUSH2 0x4D1 JUMPI DUP3 PUSH4 0xFFFFFFFF AND PUSH1 0x3 DUP3 DUP2 SLOAD DUP2 LT PUSH2 0x476 JUMPI PUSH2 0x476 PUSH2 0x5D0 JUMP JUMPDEST PUSH1 0x0 SWAP2 DUP3 MSTORE PUSH1 0x20 SWAP1 SWAP2 KECCAK256 PUSH1 0x1 PUSH1 0x2 SWAP1 SWAP3 MUL ADD ADD SLOAD PUSH4 0xFFFFFFFF AND GT ISZERO PUSH2 0x4C9 JUMPI PUSH1 0x3 DUP2 DUP2 SLOAD DUP2 LT PUSH2 0x4A9 JUMPI PUSH2 0x4A9 PUSH2 0x5D0 JUMP JUMPDEST PUSH1 0x0 SWAP2 DUP3 MSTORE PUSH1 0x20 SWAP1 SWAP2 KECCAK256 PUSH1 0x1 PUSH1 0x2 SWAP1 SWAP3 MUL ADD ADD SLOAD PUSH4 0xFFFFFFFF AND SWAP3 POP SWAP1 POP DUP1 JUMPDEST PUSH1 0x1 ADD PUSH2 0x452 JUMP JUMPDEST POP PUSH1 0x3 SLOAD ISZERO PUSH2 0x502 JUMPI PUSH1 0x3 DUP2 DUP2 SLOAD DUP2 LT PUSH2 0x4ED JUMPI PUSH2 0x4ED PUSH2 0x5D0 JUMP JUMPDEST PUSH1 0x0 SWAP2 DUP3 MSTORE PUSH1 0x20 SWAP1 SWAP2 KECCAK256 PUSH1 0x2 SWAP1 SWAP2 MUL ADD SLOAD PUSH1 0x1 SSTORE JUMPDEST POP POP JUMP JUMPDEST PUSH1 0x0 PUSH1 0x20 DUP3 DUP5 SUB SLT ISZERO PUSH2 0x518 JUMPI PUSH1 0x0 DUP1 REVERT JUMPDEST DUP2 CALLDATALOAD PUSH1 0x3 DUP2 LT PUSH2 0x527 JUMPI PUSH1 0x0 DUP1 REVERT JUMPDEST SWAP4 SWAP3 POP POP POP JUMP JUMPDEST PUSH1 0x0 PUSH1 0x20 DUP3 DUP5 SUB SLT ISZERO PUSH2 0x540 JUMPI PUSH1 0x0 DUP1 REVERT JUMPDEST POP CALLDATALOAD SWAP2 SWAP1 POP JUMP JUMPDEST PUSH1 0x0 DUP1 PUSH1 0x40 DUP4 DUP6 SUB SLT ISZERO PUSH2 0x55A JUMPI PUSH1 0x0 DUP1 REVERT JUMPDEST POP POP DUP1 CALLDATALOAD SWAP3 PUSH1 0x20 SWAP1 SWAP2 ADD CALLDATALOAD SWAP2 POP JUMP JUMPDEST PUSH1 0x0 PUSH1 0x20 DUP3 DUP5 SUB SLT ISZERO PUSH2 0x57B JUMPI PUSH1 0x0 DUP1 REVERT JUMPDEST DUP2 CALLDATALOAD PUSH1 0x1 PUSH1 0x1 PUSH1 0xA0 SHL SUB DUP2 AND DUP2 EQ PUSH2 0x527 JUMPI PUSH1 0x0 DUP1 REVERT JUMPDEST PUSH4 0x4E487B71 PUSH1 0xE0 SHL PUSH1 0x0 MSTORE PUSH1 0x21 PUSH1 0x4 MSTORE PUSH1 0x24 PUSH1 0x0 REVERT JUMPDEST PUSH1 0x20 DUP2 ADD PUSH1 0x3 DUP4 LT PUSH2 0x5CA JUMPI PUSH4 0x4E487B71 PUSH1 0xE0 SHL PUSH1 0x0 MSTORE PUSH1 0x21 PUSH1 0x4 MSTORE PUSH1 0x24 PUSH1 0x0 REVERT JUMPDEST SWAP2 SWAP1 MSTORE SWAP1 JUMP JUMPDEST PUSH4 0x4E487B71 PUSH1 0xE0 SHL PUSH1 0x0 MSTORE PUSH1 0x32 PUSH1 0x4 MSTORE PUSH1 0x24 PUSH1 0x0 REVERT JUMPDEST PUSH4 0xFFFFFFFF DUP2 DUP2 AND DUP4 DUP3 AND ADD SWAP1 DUP2 GT ISZERO PUSH2 0x610 JUMPI PUSH4 0x4E487B71 PUSH1 0xE0 SHL PUSH1 0x0 MSTORE PUSH1 0x11 PUSH1 0x4 MSTORE PUSH1 0x24 PUSH1 0x0 REVERT JUMPDEST SWAP3 SWAP2 POP POP JUMP INVALID LOG2 PUSH5 0x6970667358 0x22 SLT KECCAK256 EQ DUP8 0xBC 0xC8 0x4E GAS 0x4C PUSH7 0x19CEB9822EF5C6 0xA7 JUMPI 0xAC CHAINID SWAP11 EXTDELEGATECALL 0xCD 0x23 0xC9 PUSH3 0x825582 0xC1 0xC9 0xC4 JUMPDEST PUSH5 0x736F6C6343 STOP ADDMOD 0x1F STOP CALLER ",
  "sha1": "3476fdfbf03e2379a887bdbbf413fbc0cd3f3154",
  "source": "// SPDX-License-Identifier: MIT\npragma solidity ^0.8.4;\n\nerror VotingClosed();\nerror NotInRevealPhase();\nerror AlreadyVoted();\nerror InvalidCommitment();\nerror InvalidCandidate();\nerror NotChairperson();\n\n/**\n * @title Voting\n * @dev Implements a Commit-Reveal cryptographic voting scheme for voter anonymity.\n * Highly optimized for gas efficiency utilizing custom errors and tightly packed structs.\n */\ncontract Voting {\n    struct Voter {\n        bytes32 commitment; // Hashed secret commitment\n        bool hasRevealed;   // Tracks if vote has been tallied\n    }\n    \n    struct Candidate {\n        bytes32 name;       // 32 bytes avoids expensive dynamic string arrays\n        uint32 voteCount;   // 4 bytes, tightly packed logic\n    }\n\n    enum ElectionState { COMMIT, REVEAL, CLOSED }\n    ElectionState public state;\n    \n    address public immutable chairperson;\n    bytes32 public winnerName;\n    \n    mapping(address => Voter) public voters;\n    Candidate[] public candidates;\n\n    constructor(bytes32[] memory candidateNames) {\n        chairperson = msg.sender;\n        state = ElectionState.COMMIT;\n        \n        for (uint i = 0; i < candidateNames.length; i++) {\n            candidates.push(Candidate({\n                name: candidateNames[i],\n                voteCount: 0\n            }));\n        }\n    }\n\n    modifier onlyChairperson() {\n        if (msg.sender != chairperson) revert NotChairperson();\n        _;\n    }\n\n    /**\n     * @dev Step 1: Submit a hashed commitment `keccak256(abi.encodePacked(candidateIndex, secret))`\n     */\n    function commitVote(bytes32 _commitment) external {\n        if (state != ElectionState.COMMIT) revert VotingClosed();\n        if (voters[msg.sender].commitment != 0) revert AlreadyVoted();\n        \n        voters[msg.sender].commitment = _commitment;\n    }\n\n    /**\n     * @dev Step 2: Reveal the candidate index and secret to tally the vote\n     */\n    function revealVote(uint256 _candidateIndex, bytes32 _secret) external {\n        if (state != ElectionState.REVEAL) revert NotInRevealPhase();\n        Voter storage sender = voters[msg.sender];\n        \n        if (sender.hasRevealed) revert AlreadyVoted();\n        if (sender.commitment == 0) revert InvalidCommitment();\n        if (_candidateIndex >= candidates.length) revert InvalidCandidate();\n\n        // Cryptographically verify voter's commitment matches the revealed data\n        bytes32 expectedCommitment = keccak256(abi.encodePacked(_candidateIndex, _secret));\n        if (expectedCommitment != sender.commitment) revert InvalidCommitment();\n\n        sender.hasRevealed = true;\n        candidates[_candidateIndex].voteCount += 1;\n    }\n\n    /**\n     * @dev Admin function to transition between COMMIT, REVEAL, and CLOSED phases\n     */\n    function changeState(ElectionState _newState) external onlyChairperson {\n        state = _newState;\n        if (_newState == ElectionState.CLOSED) {\n            _tallyWinner();\n        }\n    }\n\n    /**\n     * @dev Calculates the final winner once the election automatically closes\n     */\n    function _tallyWinner() internal {\n        uint32 winningVoteCount = 0;\n        uint256 winningIndex = 0;\n        \n        for (uint256 p = 0; p < candidates.length; p++) {\n            if (candidates[p].voteCount > winningVoteCount) {\n                winningVoteCount = candidates[p].voteCount;\n                winningIndex = p;\n            }\n        }\n        \n        if (candidates.length > 0) {\n            winnerName = candidates[winningIndex].name;\n        }\n    }\n}",
  "sourcePath": "contracts/Voting.sol",
  "type": "contract"
}